:020000040800F2
:1000000000100020011B0008791A00087B1A000864
:1000100000000000000000000000000000000000E0
:100020000000000000000000000000007D1A000831
:1000300000000000000000007F1A0008811A00087C
:10004000511B0008511B0008511B0008511B0008E0
:10005000511B0008511B0008511B0008511B0008D0
:1000600000000000511B0008511B0008511B000834
:10007000511B0008991A0008891A0008511B000832
:10008000511B00080000000000000000511B000888
:1000900000000000511B0008511B0008511B000804
:1000A00000000000511B000800000000511B000868
:1000B0000000000000000000000000000000000040
:1000C00010B5064C2378002B07D1054B002B02D02E
:1000D000044800E000BF0123237010BD040000208D
:1000E00000000000C01B0008044B10B5002B03D01B
:1000F0000349044800E000BF10BDC04600000000F6
:1001000008000020C01B000802B4714649084900DD
:10011000095C49008E4402BC7047C0460022430877
:100120008B4274D303098B425FD3030A8B4244D3BF
:10013000030B8B4228D3030C8B420DD3FF22090201
:1001400012BA030C8B4202D31212090265D0030BC0
:100150008B4219D300E0090AC30B8B4201D3CB03B6
:10016000C01A5241830B8B4201D38B03C01A5241F8
:10017000430B8B4201D34B03C01A5241030B8B42FA
:1001800001D30B03C01A5241C30A8B4201D3CB02E5
:10019000C01A5241830A8B4201D38B02C01A5241CA
:1001A000430A8B4201D34B02C01A5241030A8B42CD
:1001B00001D30B02C01A5241CDD2C3098B4201D3E5
:1001C000CB01C01A524183098B4201D38B01C01A63
:1001D000524143098B4201D34B01C01A52410309DA
:1001E0008B4201D30B01C01A5241C3088B4201D389
:1001F000CB00C01A524183088B4201D38B00C01A36
:10020000524143088B4201D34B00C01A5241411A5C
:1002100000D20146524110467047FFE701B5002069
:1002200000F006F802BDC0460029F7D076E7704717
:100230007047C04610B5040000F0EEFBFA218900BB
:10024000FFF76CFF00F070F801200022210040420F
:1002500000F030F8002010BD1023064A10B51168D8
:1002600000200B431360FFF7E5FF01F065FB002062
:1002700010BDC04600200240024A136801331360DB
:100280007047C0462C000020014B18687047C046DC
:100290002C00002037B50190FFF7F6FF019C050008
:1002A000631C5A1E9341E418FFF7EEFF401BA04267
:1002B000FAD337BD70B58901002814DA0F23C0B214
:1002C0000340083B114A9B089B009B1803221040E7
:1002D0009040FC321500114085408140DC69AC4300
:1002E0002143D96170BD032583082840A840FC350F
:1002F0002E00074A9B009B18C0228640294081405F
:1003000092009C58B44321439950EBE700ED00E084
:1003100000E100E01F2318401E3B8340014A1360A8
:100320007047C04600E100E0094A431E01209342A5
:100330000DD8C021074A08485360036A09061B020A
:100340001B0A0B4303620020072390601360704771
:10035000FFFFFF0010E000E000ED00E0F0B50B68EB
:1003600087B0029300230191029ADA4001D107B0CD
:10037000F0BD01229A4003920399029A0A4000922A
:1003800000D188E0019A1021526816008E43022E97
:100390000ED107251D40AD000139A940DC08A4009D
:1003A0000419276A8F4301990969A9400F432762FD
:1003B00003245F00BC40E4430568013E2540AC4691
:1003C00003251540BD4061460D430560012E0FD841
:1003D00001998668CD682640BD40354385604668F2
:1003E000039915098E4301210D409D403543456019
:1003F000C56801992C408D688021BD4049052C437A
:10040000C4600A4247D00121244C0326A5691E403E
:100410000D43A561A4699D080C400594059C0F241B
:100420001F49AD00B6006D18B4409021AF68C905F2
:10043000A7430024884208D01A490134884204D0D6
:1004400019490434884200D1033CB44000993C432C
:100450000E00AC60154CCD4327683E43D10301D458
:100460003E002E4026606768009E3E43910301D403
:100470003E002E406660A768009E3E43D10201D434
:100480003E002E40A660E668009F3743920201D4EA
:100490002E403700E760013366E7C0460010024097
:1004A000000001400004004800080048000401402A
:1004B000002A01D0816170478162FCE7436959409D
:1004C00041617047F0B5036885B00500DB072FD4A4
:1004D0002B689B0700D581E02B681B0700D5BCE08B
:1004E0002B685B0700D5DFE02B68DB061AD56A694D
:1004F000B54C0423012A00D04BE1616B02260B436B
:100500006363636B1A436263FFF7BEFE0700636BAE
:10051000334200D136E1F821626BAB698A43DB00DC
:1005200013436363296A002900D059E1002013E0D6
:100530000C21A54C62680A40042A06D063680B406F
:10054000082B0BD16368DB0308D523689B03BFD559
:100550006B68002BBCD1012005B0F0BD6B68012B8E
:1005600013D1802322685B0213432360FFF78CFEC4
:1005700080260700B60223683342A9D1FFF784FE24
:10058000C01B6428F7D90320E6E7002B16D12368A7
:100590008E4A80261340236023688D4AB60213409A
:1005A0002360FFF771FE07002368334200D18FE715
:1005B000FFF76AFEC01B6428F6D9E4E7052B05D1D6
:1005C00080232268DB0213432360CAE723687F4A43
:1005D0001340236023687E4A1340C6E70C227A4CFE
:1005E0006368134206D063681340082B10D1636818
:1005F000DB030DD423689B0702D5EB68012BAAD13E
:10060000F82122682B698A43DB001343236063E7E8
:10061000EA680123002A0FD02268022613432360D0
:10062000FFF732FE070023683342E9D1FFF72CFEC3
:10063000C01B0228F7D9A6E7226802269A43226047
:10064000FFF722FE07002368334200D144E7FFF79B
:100650001BFEC01B0228F6D995E7EA6901235A4C14
:10066000002A10D0626A022613436362FFF70CFE71
:100670000700636A334200D032E7FFF705FEC01B74
:100680000228F6D97FE7626A02269A436262FFF780
:10069000FBFD0700636A334200D121E7FFF7F4FD59
:1006A000C01B0228F6D96EE780220021464C520575
:1006B000E3690091134208D1E3691343E361E369FD
:1006C00013400393039B012300938027414E7F0037
:1006D00033683B4206D0AB68012B13D1226A134327
:1006E000236230E033683B433360FFF7CDFD019078
:1006F00033683B42EFD1FFF7C7FD019BC01A642866
:10070000F6D940E70122002B14D1236A0227934334
:100710002362236A033293432362FFF7B5FD060089
:10072000236A3B4225D0FFF7AFFD2B4B801B98423D
:10073000F6D928E7052B0BD1216A013B0B43236235
:10074000236A1A432262FFF79FFD022706000DE08D
:10075000236A934304222362236A9343C0E7FFF78B
:1007600093FD1D4B801B984200D90CE7236A3B4246
:10077000F5D0009B012B00D0B6E6E369174A134081
:10078000E361B1E6FFF780FDC01B022800D8BEE69A
:10079000F9E6053203D1626B9A436263BBE6626B92
:1007A0000226134301226363636B93436363FFF782
:1007B0006BFD0700636B334200D1B3E6FFF764FDC6
:1007C000C01B0228F6D9DEE600100240FFFFFEFF44
:1007D000FFFFFBFF0070004088130000FFFFFFEFEA
:1007E0000C22264C012063681340082B00D1B3E68D
:1007F0002368234A1340236002292FD1FFF744FDC9
:1008000080260700B6042368334221D10F22E36A11
:100810009343EA6A1343E362696AAB6A62680B4313
:10082000184980250A4013436360802322685B04D3
:1008300013432360FFF728FD0600AD0423682B4215
:1008400000D073E6FFF720FD801B0228F6D99AE658
:10085000FFF71AFDC01B0228D5D994E6FFF714FD57
:1008600080250600AD0423682B4200D15EE6FFF729
:100870000BFD801B0228F6D985E6C0460010024019
:10088000FFFFFFFEFFFFC2FF70B5144C88B01022BF
:100890002100684601F082F9210004AD10221031D8
:1008A000280001F07BF90C220D4E73681A40082ACB
:1008B00011D10F206A46990C0140545CF26A024043
:1008C000A95CDB0305D50748FFF728FC604308B0A7
:1008D00070BD0548FAE70348F9E7C046D81B000891
:1008E0000010024000127A0000093D00F7B5012215
:1008F000434C060023680F0013408B421CD3326820
:10090000930723D4D30729D4012322681A4097429E
:1009100067D333683B4C5B076AD4FFF7B5FF636866
:10092000394A1B061B0FD35CD840384B1860002097
:10093000FFF780FC002008E0236893430B4323600B
:10094000236813409942DAD00120FEBDF0202D49E2
:100950004B688343B06803434B60D3E7294D72680B
:100960002B68012A1AD19B03EED503216B688B43B8
:1009700013436B60FFF788FC73680190012B15D15E
:100980000C226B681340042BBED0FFF77DFC019B4B
:10099000C01A1F4B9842F3D90320D6E7022A02D18E
:1009A0009B01E2D4D0E79B07DFD4CDE7022B12D026
:1009B0000C226B681342A7D0FFF766FC019BC01A9C
:1009C000134B9842F4D9E7E7FFF75EFC019BC01A8E
:1009D0000F4B9842E0D80C226B681340082BF3D1E0
:1009E00092E722689A43226022681A42ACD190E7CB
:1009F0006368084A1340F268134363608DE7C0469A
:100A00000020024000100240331D000800000020BA
:100A100088130000FFF8FFFF014B18687047C046BD
:100A200000000020044B054A5B685B055B0FD35C4C
:100A3000034A1068D840704700100240431D000868
:100A400000000020F0B5036885B00500DB0328D561
:100A500080220021374C5205E3690091134208D1EE
:100A6000E3691343E361E36913400393039B0123A9
:100A700000938027304E7F0033683B4226D0C0224F
:100A8000236A920013402D4E32D1236A1E406B68B8
:100A90001E43009B2662012B03D1E369284A1340C1
:100AA000E3612A68D30706D5032022490B6B8343F1
:100AB000A86803430B630020930617D510211D4A35
:100AC000136B8B43E9680B4313630FE033683B43BD
:100AD0003360FFF7D9FB019033683B42CFD1FFF77A
:100AE000D3FB019BC01A6428F6D9032005B0F0BDE2
:100AF00069680A409342C8D08023226A206A1100A4
:100B00005B0203432362236A0E48314003402362A1
:100B10002162D307B9D5FFF7B7FB07000222236A8A
:100B20001342B2D1FFF7B0FB074BC01B9842F5D977
:100B3000DBE7C0460010024000700040FFFCFFFFF2
:100B4000FFFFFFEFFFFFFEFF88130000E0210368B7
:100B500010B55A688A435A60822241685200914215
:100B60000CD18021826809028A4203D08021C90009
:100B70008A4203D140211A688A431A608021826A1E
:100B800089018A4206D11968074C21401960196809
:100B90000A431A60030001225D331A7000235C309F
:100BA0000370032010BDC046FFDFFFFFF8B505004E
:100BB0000C00160080272B689868384006D0621C0D
:100BC000FAD0002C03D12800FFF7C0FFF8BDFFF7D3
:100BD0005BFB801B8442EED8F5E7F0B5C02706002A
:100BE0000D00140085B00193FF0002AB3168DA1DDF
:100BF000886828400CD0BD4203D10B7BDBB2137058
:100C00001378631CF4D0002C04D13000FFF79EFF52
:100C100005B0F0BDFFF738FB019BC01A8442E4D851
:100C2000F3E770B513000D0016000A00C02149015A
:100C30000400FFF7D2FF002805D02023226E0320F6
:100C4000134323660FE0320029002000FFF7AEFFB8
:100C50000028F2D1C02133002A00C9002000FFF78C
:100C6000BCFF0028E9D170BDF8B504000120002CBC
:100C70004BD000232500A3625D352B78DBB2002B1F
:100C800005D122005C321370200000F06DFE0223BB
:100C9000402221682B700B68002093430B60E023F7
:100CA000E268DB009A4231D9F0263601B24233D1F4
:100CB0000600206B002803D19A422FD90223236318
:100CC000A7686368A0693B4327693B4367693B4367
:100CD000E7693B43276A3B43A76A3B438027BF0042
:100CE00007403B430B60636A000C1A43636B1A4373
:100CF00004231840104306434E60CB69084A002085
:100D00001340CB61012320662B70F8BD802676014D
:100D10009A42CED0A062CCE70600FBE70123CEE7E3
:100D2000FFF7FFFFF0B51F00030087B05C330192AF
:100D300002931B7804000D000226012B00D17AE0FB
:100D40000123029A1370FFF79FFA23005D3300908E
:100D500003931B78DBB2012B67D11E00002D64D0FA
:100D6000019B002B61D00323039A13706A4692887B
:100D70000023A2876A4692882366E287A21D236425
:100D8000A56302329387D3872365E3648023A26837
:100D90001B029A4205D180232268DB0111680B43B4
:100DA0001360402223681968114202D119680A436E
:100DB0001A60E021E068C9006268884247D9002AC9
:100DC00002D0E28F012A06D12A880235DA60E38F49
:100DD000013B9BB2E3870226E38F002B16D1009ADA
:100DE00039002000FFF71DFF002800D06CE0A36849
:100DF000002B06D105932368DA6805929B6805935A
:100E0000059B266E731E9E41F6B20EE023689A681B
:100E1000324207D02A880235DA60E38F013B9BB269
:100E2000E387D9E7002F09D103260123039A137022
:100E30000023029A1370300007B0F0BD7B1CCBD0AA
:100E4000FFF722FA009BC01A8742C5D8ECE7002AB8
:100E500002D0E28F012A09D1E28F012A19D92A880A
:100E60000235DA60E38F023B9BB2E3870226E38F11
:100E7000002BB4D023689A6832421AD0E28F012A3C
:100E80000FD92A880235DA60E38F023B9BB2E387F1
:100E9000EDE72A7801351A73E38F013B9BB2E387B4
:100EA000E4E72A7801351A73E38F013B9BB2E387AD
:100EB000DDE7002FB8D07B1CD9D0FFF7E5F9009B08
:100EC000C01A8742D3D8AFE7202323668FE70122D9
:100ED0000368D96800201143D96019680A431A6071
:100EE000704770477047704770470222036810B51B
:100EF0001969040011420ED0D96811420BD0053A8D
:100F00001A619B69043202779B0700D179E0FFF7F1
:100F1000E9FF00232377042223681969114210D0C6
:100F2000D96811420DD0093A1A61073222779A69BD
:100F3000C0239B0020001A4269D0FFF7D3FF002393
:100F4000237708222368196911420ED0D96811420B
:100F50000BD0113A1A61DB690D32227720009B0712
:100F60005BD0FFF7BFFF00232377102223681969A6
:100F7000114210D0D96811420DD0213A1A611932AC
:100F80002277DA69C0239B0020001A424BD0FFF77A
:100F9000A9FF00232377012223681969114207D092
:100FA000D968114204D0033A1A61200000F0A6FC6F
:100FB000802223681969114208D0D968114205D0EE
:100FC000023AFF3A1A61200000F07AF940222368C1
:100FD0001969114207D0D968114204D0813A1A61C7
:100FE0002000FFF781FF202223681969114207D0F2
:100FF000D968114204D0413A1A61200000F05FF92B
:1010000010BDFFF76EFF2000FFF76DFF81E7FFF7D0
:1010100068FF2000FFF767FF91E7FFF762FF2000FE
:10102000FFF761FF9FE7FFF75CFF2000FFF75BFF23
:10103000AFE700001D4A10B50368904206D0802437
:10104000E405A04202D01A4CA0420CD17024A34364
:101050004C68234390420FD08024E405A0420BD07B
:10106000134CA04208D0134CA04205D0124CA04211
:1010700002D0124CA04203D1114C2340CC68234330
:101080008024A3434C69234303608B68C3620B68CD
:101090008362904205D0084B984202D0074B984299
:1010A00001D10B6903630123436110BD002C014092
:1010B000000400400020004000440140004801407E
:1010C000FFFCFFFF70B504000120002C14D02500A8
:1010D0003D352B78DBB2002B05D122003C3213705A
:1010E000200000F071FC022320682B70211DFFF707
:1010F000A1FF012300202B7070BD000030B5846873
:10110000034D0A431B022C4013432343836030BD2D
:10111000FF00FFFFF8B5050002233C352A780400E4
:101120001800012A19D02600012720683D362F70AB
:10113000337083684F4A134083600B68402B00D1A3
:101140006FE016D8102B00D187E007D8002B00D114
:101150007DE00123002033702870F8BD202B00D1E2
:1011600081E0302BF5D17022836893431A00372336
:1011700055E0702B33D01BD8502B3BD0602BE8D1DF
:1011800010244B68CA68016A3B4FA143016284691D
:1011900012033C402243A024016A82617022A143D1
:1011A0001B010B430362836893431A00672336E0F5
:1011B0008022520193420DD0802292019342C8D1E5
:1011C000CB684A688968FFF799FF80232268DB01B2
:1011D00091680CE00722836893438360B9E7CB688A
:1011E0004A688968FFF78AFF7721226893680B4372
:1011F0009360AEE74A68CB68016A046A1B01BC438E
:10120000F02704628469BC4323430A24A1430A43B0
:10121000836102627022836893431A005723134349
:10122000DBE74A68CB68016A046A1B01BC43F0270C
:1012300004628469BC4323430A24A1430A438361B3
:1012400002627022836893431A004723E7E7702203
:10125000836893431A000723E1E77022836893436E
:101260001A001723DBE77022836893431A002723B1
:10127000D5E7C0468800FFFFFF0FFFFF30B5040031
:101280003C34227803000220012A17D01D001B687D
:101290003D3528705A686E3082435A605A68086833
:1012A0004968024380205A609A6882439A609A682B
:1012B00000200A439A6001232B70207030BD7047D4
:1012C0007047000070B504000568C2698368006952
:1012D00029680343606903433548134301400B43C6
:1012E0002B606B683349206A0B40E1680B436B60ED
:1012F000A369A9680343304801400B430321AB6055
:101300002E4B1B6B0B402E49C85C80231B029A425C
:101310002CD1082827D8FEF7F7FE05260B261E2617
:1013200026262100FFF77EFB636840005B0802E091
:1013300063685808234BC0186168FEF7EFFE83B25C
:1013400000200F22190091430A001B0721685B0F40
:101350001343CB6070BDFFF797FAE5E76368580861
:1013600080235B02E7E701200023EAE708281DD875
:10137000FEF7CAFE051C0A1C141C1C1C1700FFF7F4
:1013800051FB61684B0802E061680F4B4808C018C8
:10139000FEF7C4FE80B2E8600020DBE7FFF774FAD6
:1013A000EFE7802361681B024808F0E70120D1E7DE
:1013B000F369FFFFFFCFFFFFFFF4FFFF00100240C4
:1013C000FD1B00080024F40000127A00436A30B5C7
:1013D000DA0706D50168284C4A682240846A22430D
:1013E0004A609A0706D50168244C4A682240C46ABC
:1013F00022434A605A0706D50168214C4A682240B8
:10140000046B22434A601A0706D501681D4C4A68DE
:101410002240446B22434A60DA0606D501681A4C22
:101420008A682240846B22438A609A0606D5016846
:10143000164C8A682240C46B22438A605A0610D533
:101440000168134D4A68046C2A4022434A60802296
:101450005203944205D14A680E4C2240446C224308
:101460004A601B0606D502680B4953680B40816C25
:101470000B43536030BDC046FFFFFDFFFFFFFEFF83
:10148000FFFFFBFFFF7FFFFFFFEFFFFFFFDFFFFF20
:10149000FFFFEFFFFFFF9FFFFFFFF7FFF8B504001F
:1014A0000E0015001F002268D36933409B1B594270
:1014B0004B41AB4201D0002018E0069B0133F3D032
:1014C000069B002B13D123680C491A6803200A409D
:1014D0001A609A68A331FF318A439A602200202360
:1014E000693213705370002368342370F8BDFEF71F
:1014F000CBFE069BC01B8342D5D2E4E75FFEFFFF15
:1015000073B500260400C666FEF7BEFE164A2368C1
:101510000500934208D0220020230020693268345D
:1015200013705370207076BD1B681B070FD423689F
:101530001B685B07EFD580210C4B00220093C90389
:101540002B002000FFF7AAFF00280BD1E3E7802142
:10155000064B32000093890303002000FFF79EFF33
:101560000028E4D00320DEE700380140FFFFFF0140
:1015700070B5041E01D1012070BD050069352B78BE
:10158000DBB2002B04D102006832137000F040FA85
:101590002423012122682B70136820008B431360E1
:1015A000FFF790FE0128E6D0636A002B02D02000EE
:1015B000FFF70CFF236808495A6820000A402A21D7
:1015C0005A609A688A439A60012219680A431A602D
:1015D000FFF796FFD0E7C046FFB7FFFFF0B5002545
:1015E00085B0002201212748FEF762FF2C00052666
:1015F000254B6E43585D00F085F8002806D1053470
:10160000E4B20135322CF2D105B0F0BD0122012344
:101610005242B24043704368611E9C46C3780470D6
:1016200002938378F2405918C9B201930B1C1F2909
:1016300000D91F231F21DBB2CB1ADA409A401E3992
:101640000392029B8B42DAD30022130009E060462A
:1016500018270078BF1AB840034301200832844499
:10166000D2B201989042F2D8F340084A88008258DA
:10167000039F53403B405A40044B0131C250C9B212
:10168000DFE7C04600040048011C000830000020CD
:1016900007B505221749684600F080FA902001221C
:1016A0004021C005FEF704FF902000224021C00524
:1016B000FEF7FEFE104A13780133DBB2072B16D873
:1016C00013701378802269461A410A700B4A9B00F6
:1016D0009B580B481A0A4B708A701A0C1B0E0B7120
:1016E0000123CA705B420522FFF71CFB07BD0023E4
:1016F000E6E7C046F81B000820000020300000206C
:101700000001002000220521084B2038C0B21A70C9
:101710005A709970D970064A3A2804D8484310186C
:101720005860180070475A60FBE7C046240000204C
:101730000C1C000870B5102694B03022002108A8B7
:1017400000F035FA32000021684600F030FA32002D
:10175000002104A800F02BFAA023022401259B03FA
:1017600008A80894109412930B950C96FEF7AAFE05
:1017700007230194002429006846009302940394EF
:10178000FFF7B4F804A804950694FFF75BF914B0CA
:1017900070BD000070B58AB0FEF75EFDFFF7CAFFAE
:1017A0001422002105A800F002FA80204A4BC00351
:1017B00059690024014359615A690125024080207A
:1017C0000092009A596980020143596180215A6947
:1017D000C902024090200192019A5A69C0050A4349
:1017E0005A615B6900220B4002934021029BFEF785
:1017F0005FFE002209213948FEF75AFE902040235F
:1018000005A9C0050593069507940894FEF7A6FD63
:10181000092305A931480593069507940894FEF716
:101820009DFD2F482F4B08260360E1235B02436098
:101830000C2384604361C46004618461C4610462F8
:101840004462FFF795FE1022210005A800F0AFF9D1
:101850003200210003A800F0AAF9234D234B2800F1
:101860002B6031236B60224BAC60EB602C616C61B0
:10187000AC61FFF727FC802305A95B0128000593D5
:10188000FFF748FC03A9280003940494FFF7F6FC33
:101890001848194B8460036082235B004360E02397
:1018A000DB00C36080239B008361D13BFF3BC361AE
:1018B00050330362793BC3620461446144628462D1
:1018C00004634663FFF7D0F92800FFF700FB00F040
:1018D0001FF800F021F8FCE7001002400004004867
:1018E0005000002000380140C0000020002C0140C2
:1018F000E10400000001002000300140034B10B55E
:10190000984201D100F014F810BDC046C00000207C
:1019100010B5FFF763FE10BD10B508210348FEF7B0
:10192000CDFDFA208000FEF7B5FC10BD0004004894
:1019300010B5FFF7ADFE10BD01200A4B82B09969CA
:101940000143996180219A69490502400092009AF9
:10195000DA690A43DA61DB690B400193019B02B04B
:101960007047C0460010024010B5040088B0142231
:10197000002103A800F01BF9114B22689A421DD1E7
:101980008020104B400199690143996180219A6937
:10199000890202400192019A5A6990200A435A61D1
:1019A0005B69C0050B400293029BA02303939E3BFF
:1019B000049303A901330693FEF7D0FC08B010BDD1
:1019C000003001400010024007B50F4B02689A42F8
:1019D00019D180200D4A00019169014391619369F9
:1019E00000220340110001930D20019BFEF762FCD1
:1019F0000D20FEF78FFC00220E201100FEF75AFC8E
:101A00000E20FEF787FC07BD002C014000100240AD
:101A100010B5040088B01422002103A800F0C7F814
:101A2000124B22689A421FD18020114BC001996944
:101A30000143996180219A69890202400192019AC9
:101A40005A6990200A435A615B69C0050B400293B2
:101A5000029B084B03A903930223049301330693CB
:101A6000023B0793FEF77AFC08B010BD0038014036
:101A700000100240048000007047FEE77047704786
:101A800010B5FEF7F9FB10BD10B50248FFF72DFAAF
:101A900010BDC046C000002010B5FFF7F5FF10BD17
:101AA0000121114B11481A680A431A605A68024012
:101AB0005A601A680E4802401A601A680D480240BF
:101AC0001A605A680C4802400F205A60DA6A824352
:101AD000DA621A6B094802401A635A6B8A435A63E6
:101AE00000229A607047C046001002400CB8FF0800
:101AF000FFFFF6FEFFFFFBFFFFFFC0FFECFEFFFF57
:101B00000D4885460D480E490E4A002302E0D45880
:101B1000C4500433C4188C42F9D30B4A0B4C002335
:101B200001E013600432A242FBD3FFF7B9FF00F0DB
:101B300011F8FFF72FFEFEE7001000200000002044
:101B400004000020541D000804000020640100204F
:101B5000FEE7000070B500260C4D0D4C641BA41070
:101B6000A64209D1002600F02BF80A4D0A4C641B4E
:101B7000A410A64205D170BDB300EB5898470136BA
:101B8000EEE7B300EB5898470136F2E74C1D00082A
:101B90004C1D00084C1D0008501D0008002310B506
:101BA0009A4200D110BDCC5CC4540133F8E7030065
:101BB0008218934200D1704719700133F9E7000091
:101BC000F8B5C046F8BC08BC9E467047F8B5C0469C
:081BD000F8BC08BC9E467047FA
:101BD80002030405060708090A0B0C0D0E0F101066
:101BE8000102030405060708090A0B0C0D0E0F1065
:101BF800FFFFFFFFFF00040802454E47494E4141E1
:101C0800544F520000000000008080800080A0A097
:101C180000000050F850F85070806010E0A020409C
:101C280080A0F0F0F0F0F0202000000020404040BC
:101C3800204020202040005020500000207020002C
:101C4800000000404000006000000000000040105C
:101C5800202040806090909060206020202060903C
:101C68002040F0E0106010E09090701010F080E0DC
:101C780010E06080E09060F010204040609060903C
:101C880060609070106000400040000040004040DC
:101C9800204080402000700070008040204080601C
:101CA80020400040609030D0606090F09090E090CC
:101CB800E090E06090809060E0909090E0F080E0AC
:101CC80080F0F080E080807080B090709090F0900C
:101CD80090E0404040E0701010906090A0C0A0904C
:101CE80080808080F088D8A8888890D0B090906054
:101CF80090909060E090E080806090906030E090FC
:101D0800E0909070806010E0F82020202090909063
:101D180090609090906060A8A8A8A8589090609053
:101D28009090907010E0F0102040F000000000004B
:101D38000000000102030406070809000000000172
:041D4800020304008E
:041D4C00E9000008A2
:041D5000C1000008C6
:041D540000127A00FF
:0400000508001B01D3
:00000001FF
